:400000000080002011000000311100003111000080B500AF01F0C0F880B500AF294B12221A6003F009FD284B180003F0DDFE012003F012FD302003F067FA244B244A1A6088
:40004000244B8022D2051A60234B234A126802210A431A60214B224A1A60224B00221A60214B214A126808218A431A60FA23DB00180003F03FFB1D4B180003F0B7FB1C4BFA
:40008000E82252011A601B4B1B4A1A601B4BC82252011A60174B1A4A1A601A4B822212061A60194B802212031A60184B41221A60174B40221A60074B8022D2051A60C046CE
:4000C000BD4680BD30001040001BB70004010B40060000800C020B4078002E407C002E406A2D000064F02E406CF02E40DC050000040301400000014041FF008000030140DE
:4001000040FF008008010B4000010B40180101400401014080B582B000AF72B63B4B00221A60FB1D00221A7022E0FB1D1A7813005B009B185B00364A9B183B603B681A7871
:40014000597809020A43997809040A43DB781B06134318003B681A795B791B0213439BB2190000F093FFFB1D1A78FB1D01321A70FB1D1B78012BD8D9264BEE2212061A608A
:40018000254B992212041A60244B992212041A60234B992212041A60224B992212041A60214B992212041A60204A204B1B78DBB206210B43DBB213701D4B30221A601D4B8C
:4001C0001D4A1A601D4B802292001A601C4B20221A601C4BC42292021A601B4B20221A601A4B50221A601A4BC32252031A60194B40221A60184B40221A60FFF70DFF00F08D
:4002000055FFC046BD4602B080BDC0466CF02E40FC7B0100000002400001024000500F4010500F4020500F4030500F4000700F4000000440080004400020DB000C0004402F
:400240000001044008010440180104400002044008020440000304401803044010B5064C2378002B07D1054B002B02D0044800E000BF0123237010BDB01100200000000003
:4002800058740100084B10B5002B03D00749084800E000BF07480368002B00D110BD064B002BFBD09847F9E700000000B411002058740100280C00200000000090B58BB00D
:4002C00002AF786039607B68262B00D1ECE023D8052B00D197E00DD8022B00D196E102D8012B41D08BE1032B00D187E0042B00D192E084E1232B00D1ADE006D8212B00D1D7
:4003000093E0222B00D1A1E079E1242B00D1AFE0252B00D1BFE072E1412B00D14BE111D8292B00D135E106D8272B00D1EFE0282B00D1F4E063E12A2B00D133E12C2B00D194
:4003400091E05CE14C2B00D111E106D8422B00D142E1432B00D1FBE051E1572B00D140E1FA2B00D146E14AE1AD4BAE4A1A60AE4BAE4A1A601C23FC18002001F011FB030006
:4003800023801C23FB181B88002B07D01C23FB181A88A74B1100180004F034FBA54B180004F030FB1023FB1800229A711023FB18180005F025FB1F23FB1806221A7013E06A
:4003C0001F23FB181B78013B1022BA18D35C1A00994B1100180004F015FB1F23FB181A781F23FB18013A1A701F23FB181B78002BE6D1924B180004F081FB0CE1904B18006B
:4004000004F07CFB07E13B681B781A008D4B1100180004F0F7FAFEE03B681B781A008A4B1100180004F0EEFAF5E03B681B7819003B685B781A003B689B781C003B68DB78AF
:4004400082480093230004F0DDFAE4E0804B180004F054FBDFE03B681A687E4B1100180004F0D0FAD7E07C4B180004F047FBD2E03B68BB61BB691B781900BB695B781A0095
:40048000BB699B781C00BB69DB7874480093230004F0B8FABFE03B681B781A00704B1100180004F0AFFAB6E06E4B1B781A006E4B1100180004F0A6FA6A4B1B78042B00D031
:4004C000A6E06A4B180004F019FB012002F0DCFD002002F029FE012002F0FEFD02F05AFE02F0D2FE02F06EFEC04602F043FF01005F4B1A6880231B02134001D0012300E0B5
:400500000023CB18002BF0D103F012FA80E0594B180004F0F3FA012002F0B6FD7BE0564B180004F0EBFA1C23FC18002001F038FA030023801C23FB181B88002B6AD01C2345
:40054000FB181A883A4B1100180004F05BFA61E00E23FB18180010F09BFD0E23FB181B881A00464B1100180004F04CFA53E03B689B891A00424B1100180004F043FA3B6807
:400580000433180000F0B0FA3B68186811F0DEF941E03B681B781A003A4B1100180004F031FA38E03B681B781A00374B1100180004F028FA2FE0354B5B781900334B1B7864
:4005C0001A00334B180004F01DFA00F081FB00F0D7F900F033FD1EE02E4B180004F08EFA19E03B685B881A002B4B1100180004F009FA10E0294B180004F080FA0BE07A6803
:40060000274B1100180004F0FDF904E0C04602E0C04600E0C046C046BD4609B090BDC04660F02E403103000008000340020300805C74010080740100B0740100B87401008E
:40064000BC740100D8740100FC740100187501005C7501009C750100C8750100F0750100347601002E23002054760100787601000802244084760100A8760100CC760100D4
:40068000FC7601001C77010040770100342300206C77010094770100B4770100EC7701000C78010080B500AF03F03EFB02008023DB00134025D0144B1B78032B17D1134BC1
:4006C0001B685A1E114B1A60104B1B68002B0ED10E4B0A221A600E4B1B7801225340DAB20B4B1A700A4B1B78180002F0CDFC094B1B685A1C074B1A608023DB00180003F0D7
:4007000021FBC046BD4680BD2E2300202C0C0020300C0020CC11002080B500AF03F0E6F90E4B180002F04EFC0121012003F020FA0121012003F04AFA094B1900012003F087
:40074000ABFA012003F036FB80235B00180003F073FA03F0A1F9C046BD4680BDA5060000CC0C000090B583B000AF234B1B78032B03D0214B1B78022B39D1FC1D032005F033
:4007800037F903002370BC1D03F037FB03002370FB1D1B78032B1ED107F080F90300042B04D007F07BF90300062B1BD102F0E2FD0100124B1A6880231B02134001D001235D
:4007C00000E00023CB18002B02D103F07BF809E003F05EF806E007F061F90300022B01D003F056F8BB1D1B78180003F00AFBC046BD4603B090BDC0462E230020080224409B
:4008000090B583B000AF62B602F062FD284B180004F074F9012002F087FC012002F034FC012002F059FC234B180000F047FFFFF773FF05F0E9F8FFF795FF1F4B1B78022B4D
:40084000F7D11E4B1B78002BF3D01D4B1B68002B0CD01B4B00221A6000F0BCF805F0D4F8184B1B88012B01D100F078FA164B1B78002BDED002F07EFD0100144B1A68802348
:400880001B02134001D0012300E00023CB18002BCFD1BC1D002000F0A9FF03002380BB1D1A880B4B1100180004F0ACF8C1E7C04620780100BD0200002E2300203D0C00207A
:4008C000CC1100201423002018230020080224404478010080B584B000AF786039600F23FB183A6892781A707A681F4B1100180004F088F87B68313BFF3B052B26D89A00E0
:400900001A4BD3181B689F460F23FB181A78184B1100180004F076F80F23FB181B78002B1BD1144B01221A8017E00F23FB181A78114B1100180004F065F80F23FB181B78B3
:40094000002B0CD10B4B00221A8008E00B4B180004F0D4F804E0C04602E0C04600E0C046C046BD4604B080BD68780100EC7801007C780100D0110020A8780100D4780100EB
:4009800090B585B002AF114B180000F08FFCBC1D3B1D0093022300220021002000F0E8FC03002380BB1D1B88002B0AD13B1D1B88002B06D0064B1B88012213439AB2044BD2
:4009C0001A80C046BD4603B090BDC046D5080000D011002090B585B002AF2E4B1B78DBB2002B53D12C4B1B685A1E2B4B1A602A4B1B68002B4AD1284B32221A60274B1B7877
:400A00000133DAB2254B1A70244B1B78142B02D9224B02221A70224B1B88012B16D1BC1D204B1E4A00921A785B781B02134300201B041B0C020C120413431800012300224E
:400A4000002100F095FD0300238008E0BC1D134B01220021002000F037FC03002380BB1D1B88002B0AD0BB1D1A880F4B1100180003F0C8FF0A4B00221A8007E0074B1B78CD
:400A80001A000A4B1100180003F0BCFFC046BD4603B090BD30230020340C0020380C0020D011002034230020047901001879010080B586B000AFF860B9607A6000237B61C4
:400AC00009E0BB685A1CBA601B78180002F03CFC7B6901337B617A697B689A42F1DB7B681800BD4606B080BD80B584B000AF78600E23FB1800221A8017E07B681A680E23B5
:400B0000FB1800215B5ED3181B781A000F4B1100180003F077FF0E23FB1800229B5E9BB201339AB20E23FB181A800E23FB1800229B5E7A6892889342DFDB054B180003F0F5
:400B4000DDFFC046BD4604B080BDC046387901004079010080B584B000AF786039603B68FB607A684D4B1100180003F04BFF7B68953BFF3B0B2B00D981E09A00484BD31851
:400B80001B689F46FB689B781900FB68DB781A00444B180003F036FFFB689B78002B00D074E0414B01221A8070E0FB689B781900FB68DB781A003D4B180003F023FFFB68CA
:400BC0009B78002B64D1384B00221A8060E0384B180003F093FF374B00221A7059E0364B180003F08BFF334B01221A7051E0334B180003F083FF324B00221A7002F07AFB6F
:400C000047E002F065FB2F4B180003F077FF2C4B01221A703DE0FB689B78002B1FD1254B1B78012B03D1FB68DB78082B07D0214B1B78002B13D1FB68DB78052B0FD1FB6874
:400C40005B681B681B7802221340DBB2002B03D0002002F041FA02E0012002F03DFAFB689B781900FB68DB781A00174B180003F0C9FEFB685B681800FFF736FF09E0134BDD
:400C8000180003F03BFF04E0C04602E0C04600E0C046C046BD4604B080BDC04644790100A87A0100587901001423002094790100D07901003C0C0020F4790100187A01006C
:400CC0003D0C0020347A0100547A0100907A010090B585B002AF1F4B180001F06BFA1E4B00221A80BC1D3B1D0093022300220721002001F041FC03002380BB1D1B88002B0D
:400D00000AD13B1D1B88002B06D0134B1B88012213439AB2104B1A80BC1D3B1D0093022300220421002001F027FC03002380BB1D1B88002B0AD13B1D1B88002B06D0064B49
:400D40001B88012213439AB2034B1A80C046BD4603B090BD550B00001423002090B585B002AF02F009FA031E1BD1774B1B78002B06D1754B1B780133DAB2734B1A7013E091
:400D8000714B1B78012B0FD1704B39229A70704B01221A606C4B1B780133DAB26A4B1A7002E0694B00221A706A4B1B78DBB2002B00D0C4E0664B1B685A1E654B1A60644BDC
:400DC0001B68002B00D0BAE0614B0A221A60624B1B780133DAB2604B1A705F4B1B78282B02D95D4B04221A705B4B1A78574BDA70BC1D5A4B01220021002001F0D3FA0300CA
:400E00002380BB1D1B88002B00D098E0544B180003F0F8FD7B1D00221A700EE07B1D1B784A4AD35C1A004F4B1100180003F0EAFD7B1D1A787B1D01321A707B1D1B78072BCF
:400E4000ECD9494B180003F059FE444B1B78002B16D1BC1D454B3D4A00921A785B781B02134300201B041B0C020C12041343180008230422002101F091FE0300238015E0A4
:400E8000BC1D3A4B314A00921A785B781B02134300201B041B0C020C12041343180008230722002101F07AFE03002380BB1D1B88002B36D1254B00229A70244B0022DA704F
:400EC000264B1B78002B16D1BC1D284B1F4A00921A785B781B02134300201B041B0C020C12041343180008230422002101F056FE0300238015E0BC1D1C4B144A00921A78B1
:400F00005B781B02134300201B041B0C020C12041343180008230722002101F03FFE03002380BB1D1B88002B09D0BB1D1A88104B1100180003F066FD0E4B00221A80C0463C
:400F4000BD4603B090BDC046D4110020D8110020400C002030230020E01100203C0C0020D87A0100EC7A0100F47A010034230020F87A01001423002080B582B000AF7860AA
:400F800039607A68244B1100180003F03BFD7B68F73BFF3B052B34D89A00204BD3181B689F461F4B180003F0A9FD1E4B01221A802DE01D4B180003F0A1FD1A4B00221A8090
:400FC00025E03B685B681B68180000F085FD03001A00164B1A803B685B681B680233180000F07AFD03001A00114B1A800F4B1B8819000F4B1B881A000E4B180003F002FD21
:4010000005E00D4B180003F079FD00E0C046C046BD4602B080BDC0461C7B0100E47B0100307B0100E2110020587B0100E4110020E6110020807B0100CC7B010090B583B09B
:4010400000AF104B180001F0D7FEBC1D3B1D02220021012001F0DEFE03002380BB1D1B88002B0AD13B1D1B88002B06D0064B1B88012213439AB2044B1A80C046BD4603B0A3
:4010800090BDC046790F0000E211002080B582B000AF786039603A687B680021180003F0A9FCC046BD4602B080BDC04680B500AF0A4B03221A600A4B03221A60094B8022A5
:4010C00012061A60084B40221A60084B00221A60012000F00DF8C046BD4680BD300030403000314000003A4000033A40000E3F4080B584B000AF0200FB1D1A700B4B1B688A
:40110000FB60FB1D1B78002B05D0FB68802212061343FB6003E0FB685B005B08FB60034BFA681A60C046BD4604B080BD80033A4080B500AF03F01AFC03001B680C2B00D1E0
:40114000FEE7FEE780B584B000AF7860104B1A687B68D3181A000F4BD21A8023DB009A4209DC0B4B1B68FB60094B1A687B68D218074B1A6007E003F0F9FB03000C221A604F
:4011800001235B42FB60FB681800BD4604B080BD440C00204023002080B586B000AF224B7B61224B3B61204B7B6135E03B691B68FB603B695B68BB603B699B683B60002380
:4011C0007B600CE0FB681A68BB681A60BB680433BB60FB680433FB607B6804337B607A683B689A42EED13B69DB683B6000237B6008E0BB6800221A60BB680433BB607B68A8
:4012000004337B607A683B689A42F2D13B6910333B617B69013B7B617B69002BC6D103F0ABFBFFF7EDFAFEE7010000006C81010080B582B000AF154B144A126801218A43CC
:401240001A6000237B600FE07B68032B04D8104B7A689200D35800E00E4B0F4A796889008B507B6801337B607B682F2BECD9FEF751FF0A4B00221A60044B044A12680121E6
:401280000A431A60C046BD4602B080BD00001040000000003111000000000020C000002080B500AFC046BD4680BDC04680B582B000AF7860034B7A681A60C046BD4602B05A
:4012C00080BDC046E811002090B587B000AF0400080011003B60FB1D221C1A70BB1D021C1A707B1D0A1C1A701623FB1800221A80FB1D1B78002B0BD1BB1D1B78002B07D1DF
:401300007B1D1B78012B03D13B681B78642B04D91623FB1801221A8020E0FB1D1B78134ADB00D31802331A880823FB181A817B1D1B789AB20823FB189A800823FB183A68AA
:401340001A600823F81800230022002111F048F9031E03D01623FB1801221A801623FB181B881800BD4607B090BDC046087C0100B0B586B000AF05000C0010001900FB1DDE
:401380002A1C1A70BB1D221C1A707B1D021C1A703B1D0A1C1A701623FB1800221A80FB1D1B78002B07D1BB1D1B78002B03D17B1D1B78012B04D91623FB1801221A8029E00F
:4013C0007B1D1B78002B04D12C220823FB181A8109E0FB1D1B78134ADB00D31804331A880823FB181A813B1D1B789AB20823FB189A800823FB18BA6A1A600823FB18002267
:401400000021180011F0B6F8031E03D01623FB1801221A801623FB181B881800BD4606B0B0BDC046087C010090B587B000AF78601723FB1800221A701623FB1800221A701B
:40144000454B1B68002B00D17FE07B689B892C2293426DD11723FB181B78404ADB00D31802331B885A1E3E4913009B009B189B00CB1804331A6880235B0313404BD07B68A5
:40148000181D7A681623FC184023002111F0A8F8030023701623FB181B78002B3FD10C23FB187A6812881A800C23FB181722BA1812789A700C23FB180022DA700C23FB18CA
:4014C00000225A607B685B68180000F005FB03001A00012313409BB2002B08D01E4B1B680C22B918982252001000984707E01A4B1B680C22B9183222FF3210009847194BF2
:401500001B78012B0BD1184B1B7802221343DAB2154B1A7003E01623FB1806221A70134B1B78DBB201229343DAB2104B1A700CE01723FB181A781723FB1801321A70172352
:40154000FB181B78002B00D17FE71623FB181B781800BD4607B090BDE8110020087C01002C7C0100202300201823002037230020B0B586B000AF3C1D20800C00100019006E
:40158000FB1C221C1A70BB1C021C1A707B1C0A1C1A701623FC18BD6A7B1C1A78BB1C1978FB1C18782B00FFF78FFE030023801623FB181B88002B46D1264B1B78022B05D04F
:4015C0001623FB180422FF321A803CE02C23002B14D02C235A1E204913009B009B189B00CB1810331B685B68180000F075FA03001A00012313409BB2002B05D11623FB18F7
:40160000802252001A801EE0FB1C1B78134ADB00D31802331A880823FB181A810823FB18BA6A1A607B1C1B789AB20823FB189A801623FC180823FA183B1D1100186810F084
:401640002FF9030023801623FB181B881800BD4606B0B0BD2E2300202C7C0100087C010080B500AF094B00221A70094B00221A70084B00221A7000F013F8074B00221A70F4
:40168000064B00221A70C046BD4680BD372300203023002036230020182300202023002080B500AFFFF7FCFD01F086FC00F07CFD01F09CFBC046BD4680BDC046B0B594B097
:4016C00004AF78603E23FB1800221A802823FA183D4B1000190014231A0003F082F93B4B1B78002B04D1FFF7BBFF384B01221A707B68002B5CD0364B7A681A603E23FB18DE
:401700001B88002B29D11023FB181C22BA185A601023FB182022BA181A601023FB1800221A812023FB181B221A802023FB181B225A802023FB1804221A711C23FB180822DD
:401740001A703E23FC180E23FA181023FB181100180004F035FA030023803E23FB181B88002B29D13E23FC182823FD18AE231A0118491948194B0293194B01930523009384
:401780002B0004F073F9030023803E23FB181B88002B11D1134B01221A703E23FC18124B3F223221180010F0CDFE0300238003E03E23FB1801221A803E23FB181B88180077
:4017C000BD4610B0B0BDC046107C0100EC1100201C230020C8000020551D000079020000008A01002E2300202C7C010090B593B000AF0200FB1D1A704623FB1800221A801D
:40180000614B1B781A00012313401ED04623FC18FB1D1B7818000BF037FF030023804623FB181B88002B10D1574B1B7801229343DAB2554B1A70544B1B781A000223134000
:4018400003D04623FB1828221A804623FB181B88002B03D0FB1D1B78002B2CD04A4B1B781A000223134026D0484B1B78042B22D8464B1B781A0013009B009B185B009E228D
:4018800092009A18424BD318591C4623FC18FB1D1B7840480A220BF0DDFE030023804623FB181B88002B06D1374B1B7802229343DAB2354B1A704623FB181B88002B03D0BC
:4018C000FB1D1B78002B57D02F4B1B781A000C23134051D02C4B1B781A00082313401FD00823FB1832220021180003F083F84623FC18FB1D1B7828490822B81832220BF075
:40190000A9FE030023804623FB181B88002B33D11D4B1B7808229343DAB21B4B1A702BE03C23FB1818000A231A00002103F062F81A4B1B781A0013009B009B185B009E22BD
:4019400092009A18124BD318591C4623FC18FB1D1B783C22B8180A220BF07CFE030023804623FB181B88002B06D1074B1B7804229343DAB2044B1A704623FB181B8818002B
:40198000BD4613B090BDC0461823002034230020008A010024230020798C01001012002090B585B000AF0200FB1D1A70FB1D1B78022B04D90E23FB1801221A804AE0294BE1
:4019C0001B78042B41D1284B1B78DBB21A00042313403AD1FB1D1B78002B0BD1234B1E221A82224B5B6820221A80204B5B6820225A8010E0FB1D1B78012B0CD11B4B9622CD
:401A00001A821A4B5B68C822D2001A80174B5B68C822D2005A80164BFA1D12781A700E23FC18124B18000EF0A5FD030023800E23FB181B88002B0DD10B4B1B78DBB20422B9
:401A40001343DAB2084B1A7004E00E23FB180422FF321A800E23FB181B881800BD4605B090BDC0462E23002037230020780C00203623002080B584B000AF78600A00FB1C6B
:401A80001A700023BB60BB68002B20D07B689A79BB681A700F23FB1800221A7012E00F23FB181B780133BA68D3180F22BA18127879688A5C1A700F23FB181A780F23FB1887
:401AC00001321A700F23FB181B78052BE7D9C046BD4604B080BDC04680B582B000AF78607B681B789AB27B6801331B789BB21B029BB213439BB21800BD4602B080BDC0469D
:401B000090B585B000AF78600F23FB1800221A707B689B890B22934232D17B68181D7A680F23FC184023002110F05AFD030023700F23FB181B78002B1AD17B685B6818004A
:401B4000FFF7CAFF03001A00022313409BB2002B07D00F4B1B687968822252001000984706E00B4B1B6879680622FF3210009847084B1B78DBB201229343DAB2054B1A7065
:401B80000F23FB181B781800BD4605B090BDC0461C2300203723002090B585B000AF78600F23FC187B681800FFF7AAFF03002370334B1B78DBB21A00012313400CD00F239D
:401BC000FB181B78002B07D10F23FC187B681800FFF72AFC03002370294B1B78DBB21A00012313400CD00F23FB181B78002B07D10F23FC187B68180000F0C4FD03002370E5
:401C00001F4B1B78DBB21A00012313400CD00F23FB181B78002B07D10F23FC187B68180001F044F903002370154B1B78DBB21A00012313401FD10F23FB181B78002B16D0E3
:401C40000823FB1812229A707B689A890823FB181A800823FB180F22BA181278DA700823FA187B68110018680FF0DCFD03E07B6818680FF06BFEC046BD4605B090BDC046AD
:401C80003723002080B582B000AF7860C046BD4602B080BD80B500AF044B00225A70034B00221A70C046BD4680BDC0463423002080B582B000AF7860C046BD4602B080BD02
:401CC00080B500AF01F054F8C046BD4680BDC04680B584B000AF78600E23FB1800221A707B689B79002B1CD10F23FB1800221A7012E00F23FB181B787A68D35C002B04D0BD
:401D00000E23FB1801221A700BE00F23FB181A780F23FB1801321A700F23FB181B78052BE7D90E23FB181B781800BD4604B080BD80B582B000AF0200BB1D1A80C046BD46B0
:401D400002B080BD80B582B000AF7860C046BD4602B080BD80B588B000AF02003960FB1D1A70C94B1B78DBB201221343DAB2C64B1A70FB1D1B78412B00D160E123DC212BED
:401D800000D1C6E00DDC022B00D198E002DC012B3BD0E8E1052B00D196E0062B00D198E0E1E1272B00D1EEE006DC242B00D1E0E0262B00D1F3E0D6E1282B00D1EBE02A2B19
:401DC00000D1DBE0CFE14F2B00D1BFE10BDC432B00D175E100DA54E14C2B00D18DE14E2B00D18FE1BFE1572B00D1B1E106DC502B00D1AFE1542B00D19BE1B4E1712B00D1B0
:401E000017E1FA2B00D199E1ADE11423FB1807221A701423FB1800225A701423FB18180005F0AEFE1423FB1807221A701423FB1801225A701423FB18180005F0A1FE002329
:401E4000002B01D003F0D0FD904B1B681800FFF73FFF031E11D08D4B1B68180003F0D8FD8A4B1B6800211800FFF704FE874B1B6801211800FFF7FEFD0DE0854B180003F0EE
:401E8000C7FD834B00211800FFF7F4FD804B01211800FFF7EFFD03200EF000FA1023FB183F221A701023FB1800225A701023FB1818000EF011FA774B04221A7053E13B685B
:401EC0001800FFF7F5FE4EE13B681A78724B1A7049E13B68BB61BB691B78002B00D03BE1BB695B78002B0BD16C4B0422DA806B4B40229A80694B6A4A1A60BB69674A5A60A7
:401F0000614B1B78DBB201229343DAB25E4B1A7022E15D4B1B78DBB21A002023134000D01CE1604B1B78102B02D15E4B0522DA705D4B1B785B4A110018000EF0D9FA030092
:401F40001A000E23FB181A800E23FB181B88002B06D0564B1B680E22BA18110036209847494B1B78DBB201221343DAB2464B1A70F4E03B685A784E4B1A70F4E03B68180046
:401F8000FFF7E0FEEFE03B681800FFF7DBFE414B02221A70E7E03F4B04221A70E3E03D4B1B78022B00D1DBE0374B1B78DBB21A000123134000D1D3E0334B1B78DBB21A00B3
:401FC000042313400BD0334B03221A702E4B1B78DBB204229343DAB22B4B1A70C0E02A4B1B78DBB21A00082313400BD0294B04221A70254B1B78DBB208229343DAB2224BE9
:402000001A70ADE0234B1B78032B00D0A8E0214B04221A70274B1B78002B00D0A0E00120FFF7BEFC031E00D09AE01A4B03221A7096E03B681B881800FFF77AFE93E01A4AFD
:402040003B681000190002231A0002F0CAFC124B00221A70144B1B781A0013009B009B185B009E2292009A18134BD3180133134A100019000A231A0002F0B3FCFFF720FEC9
:4020800071E0FFF707FE6EE037230020940C00208C0C00202E2300203023002014120020A80B00200C0E0020342300201C2300202023002036230020008A010024230020B9
:4020C0003B685B88162B05D81E23FB183A6852881A8003E01E23FB1817221A801E23FB1819883B681A8800231204120C1B0C1B04134318000FF0A0FB35E03B681800FFF723
:402100004BFD30E0254B1B78DBB21A000123134003D03B68180000F035FB204B1B78DBB21A00012313401DD03B68180000F0BEFE18E03B681800FFF7A5FD14E0184B1B78D3
:4021400001221343DAB2164B1A700CE0C0460AE0C04608E0C04606E0C04604E0C04602E0C04600E0C0460D4B1B78DBB21A00112313400ED0094B1B78DBB201229343DAB20B
:40218000064B1A70074B1B68FA1D1278396810009847C046BD4608B080BDC04637230020182300201C23002080B500AFC046BD4680BDC04680B582B000AF7860034B7A68B8
:4021C0001A60C046BD4602B080BDC0461C12002090B587B000AF0400080011003B60FB1D221C1A70BB1D021C1A707B1D0A1C1A701623FB1800221A80FB1D1B78002B03D1DC
:40220000BB1D1B78082B04D91623FB1801221A80BCE0BB1D1B78062B66D89A005F4BD3181B689F46FB1D1A781423F9185C4813009B009B18DB00C31802331B880B807EE09F
:40224000FB1D1A781423F918554813009B009B18DB00C3181E331B880B8070E0FB1D1A781423F9184E4813009B009B18DB00C31822331B880B8062E0FB1D1A781423F91893
:40228000474813009B009B18DB00C31824331B880B8054E0FB1D1A781423F918404813009B009B18DB00C3180C331B880B8046E0FB1D1A781423F918394813009B009B18C7
:4022C000DB00C31812331B880B8038E0FB1D1A781423F918324813009B009B18DB00C31818331B880B802AE0BB1D1B78D91FFB1D1A782B4813009B009B18DB00C3180433C9
:402300001B78994216DAFB1D1A78254913009B009B18DB00CB1808331968BB1D1A7813005B009B185B002A3BCA181423FB1812881A8003E01423FB1800221A80C04614237B
:40234000FB181B88002B04D11623FB1813221A801CE00823FB181422BA1812881A817B1D1B789AB20823FB189A800823FB183A681A600823F81800230022002110F030F922
:40238000031E03D01623FB1801221A801623FB181B881800BD4607B090BDC046488001002080010090B587B000AF0400080011003B60FB1D221C1A70BB1D021C1A707B1DC7
:4023C0000A1C1A701623FB1800221A80FB1D1B78002B03D1BB1D1B78082B04D91623FB1801221A80BCE0BB1D1B78062B66D89A005F4BD3181B689F46FB1D1A781423F918F8
:402400005C4813009B009B18DB00C31802331B880B807EE0FB1D1A781423F918554813009B009B18DB00C3181E331B880B8070E0FB1D1A781423F9184E4813009B009B18C2
:40244000DB00C31822331B880B8062E0FB1D1A781423F918474813009B009B18DB00C31824331B880B8054E0FB1D1A781423F918404813009B009B18DB00C3180C331B881D
:402480000B8046E0FB1D1A781423F918394813009B009B18DB00C31812331B880B8038E0FB1D1A781423F918324813009B009B18DB00C31818331B880B802AE0BB1D1B78E5
:4024C000D91FFB1D1A782B4813009B009B18DB00C31804331B78994216DAFB1D1A78254913009B009B18DB00CB1808331968BB1D1A7813005B009B185B002A3BCA181423C4
:40250000FB1812881A8003E01423FB1800221A80C0461423FB181B88002B04D11623FB1813221A801CE00823FB181422BA1812881A817B1D1B789AB20823FB189A800823EC
:40254000FB183A681A600823FB1800220021180010F010F8031E03D01623FB1801221A801623FB181B881800BD4607B090BDC0466480010020800100B0B588B000AF0500A3
:402580000C0010001900FB1D2A1C1A70BB1D221C1A707B1D021C1A703B1D0A1C1A701E23FB1800221A801C23FB1800221A80FB1D1B78002B0FD17B1D1B78022B0BD8BB1D2F
:4025C0001B78082B07D8BB1D1B78022B03D9BB1D1B78052B04D11E23FB1801221A8063E0BB1D1B78032B16D17B1D1B78022B0DD1FB1D1A781C23F918454813009B009B1860
:40260000DB00C31820331B880B804DE01E23FB1801221A8048E0BB1D1B78032B19D9BB1D1B78062B15D8FB1D1978BB1D1B78043B1A005200D21853001A000B009B005B18BA
:40264000DB00D31808331A00314BD3180433BB6112E0FB1D1A782E4913009B009B18DB00CB1808331968BB1D1A7813005B009B185B002A3BCB18BB617B1D1B78002B05D121
:402680001C23FB18BA6952881A800DE07B1D1B78012B05D11C23FB18BA6992881A8003E01E23FB1801221A801E23FB181B88012B26D01C23FB181B88002B04D11E23FB1898
:4026C00013221A801CE00C23FB181C22BA1812881A813B1D1B789AB20C23FB189A800C23FB183A6B1A600C23FB180022002118000FF040FF031E03D01E23FB1801221A80B4
:402700001E23FB181B881800BD4608B0B0BDC0462080010080B584B000AF02003960FB1D1A703B685B681800FFF7D6F903001A00012313409BB2002B03D0CA235B00FB60A1
:4027400002E09623FF33FB600B4B1B78DBB201229343DAB2084B1A70084B1B78012B06D1074B1B7802221343DAB2054B1A70FB681800BD4604B080BD37230020202300205F
:402780001823002090B589B000AF78601F23FB1800221A701E23FB1800221A700023BB619C4B1B68002B00D1EAE10C23FB187A6812881A800C23FB1800225A600C23FB1890
:4027C0001E22BA1812789A707B6899891E23FB181A78914813009B009B18DB00C31802331B88994228D10C23FB180022DA707B681B89012B00D095E17B685B681B78002BA1
:4028000002D0012B0CD08DE1CB235B00BB61834B1B78DBB201229343DAB2804B1A7081E19823FF33BB617D4B1B78DBB201229343DAB27A4B1A7075E17B6899891E23FB184D
:402840001A78754813009B009B18DB00C31824331B88994228D10C23FB180222DA707B681B89012B00D05DE17B685B681B78002B02D0012B0CD055E1CC235B00BB61674B27
:402880001B78DBB201229343DAB2644B1A7049E19A23FF33BB61614B1B78DBB201229343DAB25E4B1A703DE17B6899891E23FB181A78594813009B009B18DB00C3180C3381
:4028C0001B88994214D10C23FB180422DA707B681A1D0C23FB185A60CD235B00BB614F4B1B78DBB201229343DAB24C4B1A7019E17B6899891E23FB181A78474813009B00C4
:402900009B18DB00C3180E331B8899420ED10C23FB180422DA707A681E23FB181B7811001800FFF7F7FE0300BB61FBE07B6899891E23FB181A78384813009B009B18DB0060
:40294000C31812331B88994214D10C23FB180522DA707B681A1D0C23FB185A60CD235B00BB612E4B1B78DBB201229343DAB22B4B1A70D7E07B6899891E23FB181A78264876
:4029800013009B009B18DB00C31818331B88994214D10C23FB180622DA707B681A1D0C23FB185A60CD235B00BB611C4B1B78DBB201229343DAB2194B1A70B3E07B6899898F
:4029C0001E23FB181A78144813009B009B18DB00C3181A331B8899420ED10C23FB180622DA707A681E23FB181B7811001800FFF791FE0300BB6195E01723FB1800221A701C
:402A00001C23FB1807221A701D23FB1800221A7072E0C0461C12002020800100372300207B6899891E23FB181A78594813009B009B18DB00C318083318681D23FB181A788E
:402A400013005B009B185B00C3181B88994219D10C23FB181C22BA181278DA707B681A1D0C23FB185A60CD235B00BB61494B1B78DBB201229343DAB2464B1A701723FB1853
:402A800001221A707B6899891E23FB181A78404813009B009B18DB00C318083318681D23FB181A7813005B009B185B00C3185B88994213D10C23FB181C22BA181278DA7020
:402AC0007A681E23FB181B7811001800FFF722FE0300BB611723FB1801221A701C23FB181A781C23FB1801321A701D23FB181A781D23FB1801321A701E23FB181A7824497A
:402B000013009B009B18DB00CB1804331B781D22BA1812789A4205D21723FB181B78002B00D17DE71E23FB181A781E23FB1801321A70184B1B78DBB21A000123134017D12B
:402B40007B68181D7A681F23FC18402300210FF047FD030023701F23FB181B78002B0ED10D4B1B680C22B918BA691000984706E01E23FB181B78002B00D11FE600E0C04616
:402B80001F23FB181B781800BD4609B090BDC04620800100372300201C12002090B58BB000AF3C1D20800C0010001900FB1C221C1A70BB1C021C1A707B1C0A1C1A70262352
:402BC000FB1800221A80FB1C1B78002B03D1BB1C1B78082B04D92623FB1801221A80BAE0BB1C1B78042B0CD1FB1C1A7813009B009B18DB0008331A005A4BD31804333B621C
:402C000044E0BB1C1B78062B0CD1FB1C1A7813009B009B18DB0014331A00524BD31804333B6233E0BB1C1B78062B2BD9BB1C1B78082B27D8BB1C1B78D91FFB1C1A7849486C
:402C400013009B009B18DB00C31804331B78994213DAFB1C1A78434913009B009B18DB00CB1808331968BB1C1A7813005B009B185B002A3BCB183B6208E02623FB1801226A
:402C80001A8003E02623FB1801221A802623FB181B88002B5FD13B6A1B88002B04D12623FB1813221A8056E03B6A5B885A1E2E4913009B009B189B00CB1810331B685B689C
:402CC0001800FEF709FF03001A00012313409BB2002B24D0254B1B78022B1AD13B6A1A881423FB181A811423FB18BA6B1A607B1C1B789AB21423FB189A802623FC18142321
:402D0000FA183B1D110018680EF0CAFD0300238021E02623FB180422FF321A801BE03B6A1A880823FB181A817B1C1B789AB20823FB189A800823FB18BA6B1A600823F818DE
:402D40000023002200210FF04BFC031E03D02623FB1801221A802623FB181B881800BD460BB090BD208001002C7C01002E23002080B582B000AFBB1D01221A70FB1D0022E8
:402D80001A70FB1D1A78174913009B009B18DB00CB1802331B88002B16D0FB1D1A78114913009B009B18DB00CB1802331B885A1E0D4913009B009B189B00CB1810331B6809
:402DC0005B68BA1D12781A70FB1DFA1D127801321A70FB1D1B78002BD3D0C046BD4602B080BDC046208001002C7C010080B500AFC046BD4680BDC04680B582B000AF7860D0
:402E0000034B7A681A60C046BD4602B080BDC0462012002090B587B000AF0400080011003B60FB1D221C1A70BB1D021C1A707B1D0A1C1A701623FB1800221A80FB1D1B785A
:402E4000012B03D1BB1D1B78002B04D01623FB1801221A8022E03223002B04D11623FB1813221A801AE032220823FB181A817B1D1B789AB20823FB189A800823FB183A6897
:402E80001A600823FB180022002118000FF072FB031E03D01623FB1801221A801623FB181B881800BD4607B090BDC04690B587B000AF78601723FB1800221A703A4B1B687E
:402EC000002B6AD07B689B893222934204D07B689B892F22934260D10823FB187A6812881A807B68181D7A681723FC18402300210FF076FB030023701723FB181B78002BDA
:402F000043D17B689B89322293422DD10823FB1801229A700823FB1800225A607B685B681800FEF7D9FD03001A00012313409BB2002B03D0FB235B003B6102E0F823FF331E
:402F40003B61194B1B680822B9183A6910009847164B1B78012B18D1154B1B7802221343DAB2134B1A7010E00823FB1800229A707B681A1D0823FB185A600B4B1B680822E8
:402F8000B918FC225200100098470A4B1B78DBB201229343DAB2074B1A701723FB181B781800BD4607B090BD2012002020230020182300203723002080B500AFC046BD4695
:402FC00080BDC04680B582B000AF786000F050F87B68180000F00AF8032000F015F800F03BF8C046BD4602B080BDC04680B582B000AF7860034B7A681A66C046BD4602B0E1
:4030000080BDC0460000002090B585B000AF0200FB1D1A700623FB600B23FC1800F0EDFE030023700B4B0B4A1268C0218A431100FA1D1078FA68904002000A431A600B237D
:40304000FB181B78180000F0DCFEC046BD4605B090BDC04608E400E080B500AF034B802252001A60C046BD4680BDC04600E100E080B500AF034B802252001A60C046BD4695
:4030800080BDC04680E100E080B584B000AF0200FB1D1A700F4B1B68DAB20F23FB1810218A431A70FB1D1B781B01DBB210221340D9B20F23FB180F22BA1812780A431A708D
:4030C000044B0F22BA1812781A60C046BD4604B080BDC0460002044080B584B000AF0200FB1D1A700F4B1B68DAB20F23FB1840218A431A70FB1D1B789B01DBB24022134089
:40310000D9B20F23FB180F22BA1812780A431A70044B0F22BA1812781A60C046BD4604B080BDC0460002044080B584B000AF0200FB1D1A700F4B1B68DAB20F23FB18202114
:403140008A431A70FB1D1B785B01DBB220221340D9B20F23FB180F22BA1812780A431A70044B0F22BA1812781A60C046BD4604B080BDC0460000044080B500AF044B1B684B
:40318000102213401B09DBB21800BD4680BDC0460400044080B582B000AF094B1B68DAB2FB1D10210A401A70054BFA1D12781A60FB1D1B781B09DBB21800BD4602B080BDCC
:4031C0001000044080B500AF00F054F8054B180000F010F8032000F01BF800F041F8C046BD4680BDE931000080B500AFC046BD4680BDC04680B582B000AF7860034B7A68FE
:403200001A64C046BD4602B080BDC0460000002090B585B000AF0200FB1D1A700623FB600B23FC1800F0E9FD030023700B4B0B4A1268C0218A431100FA1D1078FA6890403E
:4032400002000A431A600B23FB181B78180000F0D8FDC046BD4605B090BDC04600E400E080B500AF024B01221A60C046BD4680BD00E100E080B500AF024B01221A60C04656
:40328000BD4680BD80E100E080B500AF024B01221A60C046BD4680BD80E200E080B500AF00F078F8C046BD4680BDC04680B500AF064B064A1268802109060A431A6000F041
:4032C0002DF800F031F8C046BD4680BD0000244080B500AF064B1B78002B04D1FFF7DEFF034B01221A70FFF7E1FFC046BD4680BD2412002080B500AF00F01EF8054B054A55
:403300001268520052081A60034B00221A60C046BD4680BD00002440880F244080B500AFC046BD4680BDC04680B500AF00F092F8C046BD4680BDC04680B500AF00F0A4F814
:40334000C046BD4680BDC04680B582B000AF7860C046064B1B681F221340082BF9D0044B7A681A60C046BD4602B080BD080224404002244080B582B000AF054B1B681F22C8
:4033800013407B607B681800BD4602B080BDC0460802244080B500AF1B4B1C4A1A601C4B00221A601B4B01221A601B4B1B4A1A601B4B07221A601B4B00221A601A4B012276
:4033C0001A601A4B154A1A60194B00221A60194B04221A60184B00221A60184B00221A60174B00221A60174B00221A60164B00221A60164B00221A60144B1B689AB2144B90
:403400001A80C046BD4680BD000024400F00000240002440480024400003244007000080040324401003244044002440000224400402244050002440880E2440C80E2440B7
:40344000480F2440080F2440C80F2440880F24402612002080B500AF074B074A126807490A40902109040A431A60054B054A12881A60C046BD4680BD00010240FFFF0FFF20
:40348000880F24402612002080B500AF084B084A126808490A401A60074B1B689AB2E423DB0013409AB2054B1A80C046BD4680BD00010240FFFF0FFF880F2440261200202D
:4034C00090B585B000AF78600F23FC1800F095FC030023700A4B7A68D104E02292031140074A1268074802400A431A600F23FB181B78180000F085FCC046BD4605B090BDEB
:4035000000010B40FFFFC7FF90B585B000AF78600C23FC1800F071FC030023707B68022B00D8B3E07B68302B00D9AFE05E4B1B78DBB21A007B689A420AD35C4A0F23FB18B9
:4035400012781A705A4A0E23FB1812781A703FE0584B1B78DBB21A007B689A420AD3564A0F23FB1812781A70544A0E23FB1812781A702DE0524B1B78DBB21A007B689A4211
:403580000AD3504A0F23FB1812781A704E4A0E23FB1812781A701BE04C4B1B78DBB21A007B689A420AD34A4A0F23FB1812781A70484A0E23FB1812781A7009E0464A0F2361
:4035C000FB1812781A70454A0E23FB1812781A707B68DA1E0B23FB1841498A5C1A700B23FB181B782F2B0DD97B682A2B0AD93D4B19221A60052000F0F7FB0D23FB181922B6
:403600001A7007E0374B1B68DAB20D23FB183F210A401A700B23FA180D23FB1812781B789A4208D22F4B7A68033A2D498A5C1A60052000F0D9FB7B68284A9A180A23FB181C
:4036400012781A70284B0A22BA1812781A60274B0F22BA1812781A60254B0E22BA1812781A60052000F0C2F80B23FA180D23FB1812781B789A420CD91A4B7A68033A1849BD
:403680008A5C1A60052000F0AFFB02E0002000F07BF80C23FB181B78180000F0B2FBC046BD4605B090BDC04640F3FF0F41F3FF0F42F3FF0F43F3FF0F44F3FF0F45F3FF0F56
:4036C00046F3FF0F47F3FF0F48F3FF0F49F3FF0F4AF3FF0F4BF3FF0F4CF3FF0F4DF3FF0F808001002CFF0B4028FF0B401CFF0B4020FF0B4080B584B000AF78600023FB604F
:40370000154B154A126801210A431A60134B144A1A60144B134A1268802109020A431A607B68002B12D01023FB600CE0012000F05DF800F019F8031E02D00023FB6005E061
:403740007B68013B7B607B68002BEFD1FB681800BD4604B080BDC04660F02E4078002E400220000010002E4080B582B000AF054B1B68012213407B607B681800BD4602B0DE
:4037800080BDC0460C002E4080B582B000AF0200FB1D1A7001BEC046BD4602B080BDC04680B582B000AF786009E00D4B1B68180000F01AFB7B680B4A944663447B607A6890
:4037C00080231B029A42F0D8074B1B687A685343180000F009FBC046BD4602B080BDC046200E00200080FFFF180E002080B582B000AF0200BB1D1A80BB1D1B88044A12781F
:403800005343180000F0F0FAC046BD4602B080BD1C0E002080B500AF164B164A1268920092081A60144B144A1268920092081A60124B124A1268920092081A60104B104A8E
:403840001268920092081A600E4B0E4A1268920092081A600C4B0C4A1268920092081A600A4B0A4A1268920092081A60C046BD4680BDC0460800044008010440080204408E
:403880000803044008040440080504400806044090B583B000AFFC1D00F0AFFA03002370074B074A126804218A431A6030BFFB1D1B78180000F0A5FAC046BD4603B090BD84
:4038C00010ED00E090B583B000AFFC1D00F095FA03002370114B114A1268520052081A600F4B104A128892B21A600F4B0E4A126804210A431A600D4B1B683B600220FFF78D
:40390000DFFD30BF094B3A681A60FB1D1B78180000F077FAC046BD4603B090BD00000B400C000B4052F2FF0F10ED00E000010B4090B583B000AFFC1D00F05FFA03002370E3
:40394000FFF768FF114B114A1268802109060A431A600F4B0F4A128892B21A600E4B0E4A126804210A431A600C4B0C4A1268FF218A43F1210A431A6030BFFB1D1B78180081
:4039800000F03FFAC046BD4603B090BD00000B400C000B4050F2FF0F10ED00E02C000B4080B500AF0F4B0F4A126801218A431A600C4B0C4A126802218A431A600A4B0A4ADB
:4039C000126830218A4310210A431A60064B064A126807218A4301210A431A60C046BD4680BDC04600F02E4000FF2E4080B500AF0F4B0F4A126802218A431A600D4B0D4AFD
:403A0000126807218A4302210A431A60094B094A126830218A4320210A431A60044B044A126801210A431A60C046BD4680BDC04600F02E4000FF2E4080B500AFFFF7B0FF46
:403A4000044B044A1268802109060A431A60C046BD4680BD00F02E4080B584B000AF78600C4B1B6801221340FB607B68002B02D0012B03D005E0FFF793FF06E0FFF7B6FF9C
:403A800003E00020FFF780FEC046FB681800BD4604B080BD00F02E4090B583B000AFFC1D00F0ABF903002370074B074A1268C02109020A431A60FB1D1B78180000F0A1F935
:403AC000C046BD4603B090BD00010B4080B500AF054B1A68C0231B02134001D0012300E000231800BD4680BD00010B4090B583B000AFFC1D00F081F9030023700D4B0D4ADD
:403B000012680D490A408021C9010A431A60094B084A126808490A40802109020A431A60FB1D1B78180000F06CF9C046BD4603B090BDC04600010B40FF3FFFFF80B582B0F5
:403B400000AF78607B68022B02D90020FFF71CFE064B1A687B68DB000133DA401300012213401800BD4602B080BDC04610020B4080B584B000AF786039607B68022B02D95A
:403B80000020FFF701FE7B681800FFF7D7FF031E16D10D4B1B687A68D200032191400A00D2431340FB603B6803221A407B68DB009A401300FA681343FB60034BFA681A60C6
:403BC000C046BD4604B080BD0C020B4080B584B000AF786039607B68002B02D07B68012B01D1012300E00023002B02D10020FFF7CBFD7B681800FFF7A1FF031E16D10D4B34
:403C00001B687A68D2000232012191400A00D2431340FB607B68DB0002333A689A401300FA681343FB60034BFA681A60C046BD4604B080BD0C020B4080B582B000AF786059
:403C4000144B144A11687A680A431A607B680122134005D0C0460020FFF770FF031EFAD07A6880235B00134005D0C0460120FFF765FF031EFAD07A6880235B02134005D043
:403C8000C0460220FFF75AFF031EFAD0C046BD4602B080BD10020B4080B584B000AF786039607B68002B02D07B68012B01D1012300E00023002B02D10020FFF765FD174B04
:403CC0001B689B0F9B0701D1C92300E05D231800FFF78CFD124B1B68FB607B681B01114A9A401300DA43FB681340FB600C4B7A68120139689140FA680A431A60074B1B68D4
:403D00009B0F9B0701D1432300E01F231800FFF76DFDC046BD4604B080BDC0460C020B4008020B40FFFF000080B500AF034B1B68034A13401800BD4680BDC04610020B40A9
:403D40000404040090B585B000AF78600B23FC1800F053F803002370FFF7B8FE031E04D00123FB60FFF7C2FE01E00023FB607B680D4A13407B600D4B0C4A12680C491140B8
:403D80007A680A431A60094B1B68FB68012B01D1FFF782FE0B23FB181B78180000F031F8C046BD4605B090BD0404040010020B40FBFBFBFF80B582B000AF7860084B084AB0
:403DC00011687A68074802400A431A60C046044B1B68044A1340FAD1C046BD4602B080BD10020B40080808000230800803D00138FDD1C046C046C0467047EFF3108072B668
:403E0000704780F31088704780B5CCB000AFF860B960844B982149008C46BC4463441A80002392225200BA181360002390225200BA181360BB688A225200BA181360794B50
:403E4000982252009446BC4463441A888A235B00FB181B68D318744A934200D9C2E08A235B00FB181B681B0A96225200BA18136096235B00FB181B681B028E225200BA18CF
:403E800013609AE000238C225200BA181360002394225200BA1813606BE08E235B00FB181A688A235B00FB181B689A423DD35D4B982252009446BC4463441A8892235B00E0
:403EC000FB181B689A4230D9FA6892235B00FB181B68D3181978554B98225200BA18D21894235B00FB181B68D3180A1C1A708E235B00FB181B681B78DAB2F96892235B00E6
:403F0000FB181B68CB181B789A4204D001238C225200BA18136092235B00FB181B68013392225200BA18136011E08E235B00FB181B681B78D9B23D4B98225200BA18D21836
:403F400094235B00FB181B68D3180A1C1A708E235B00FB181B6801338E225200BA18136094235B00FB181B68013394225200BA18136094235B00FB181B68FF2B8DD98C23D1
:403F80005B00FB181B68002B0ED01423FA1896235B00FB181B681100180000F057FA030090225200BA18136096235B00FB181B68013396225200BA1813601A4B98225200C0
:403FC0009446BC4463441A8892235B00FB181B689A420CD990235B00FB181B68002B00D150E704E0012390225200BA18136090235B00FB181B68002B0BD090235B00FB1844
:404000001B68012B05D001235B4290225200BA18136090235B00FB181B681800BD464CB080BDC046D6FEFFFFFFFF0300E4FEFFFF80B582B000AF78600A00BB1C1A80BB1C01
:404040001A887B681A60C046BD4602B080BDC04680B582B000AF78600A00BB1C1A80BB1C1A887B681A60C046BD4602B080BDC04680B584B000AF494B1B78DBB21B02484A8B
:404080001278D2B21343FB60464B1B78DBB21B02454A1278D2B21343BB60BB68434A934207D1FB68072B04D1414BBB600423FB6009E0BA68D4231B019A4204D1FB68042B14
:4040C00001D13B4BBB603B4BBA681A603A4BFA681A603A4B1B78DBB21B02394A1278D2B21343FB60FA6880239B019A4202D0FB68002B01D1334BFB60334BFA681A60334B66
:404100001B78DBB21B02324A1278D2B21343FB60FB68304A934206D0FB682F4A934202D0FB68052B01D12D4BFB602D4BFA681A602C4B1B681B097B602B4B1B68AA2B29D1AF
:404140007B68012B26D9214B1B78DBB20E2B21D1264B1B78DBB29BB21B0299B2244B1B78DBB29AB2BB1C0A431A80224BBA1C12881A60214B1B78DBB29BB21B0299B21F4B99
:404180001B78DBB29AB23B000A431A801C4B3A0012881A60C046BD4604B080BD59F1FF0F58F1FF0F5FF1FF0F5EF1FF0F580B0000580D00006C002E4074002E405BF1FF0F7A
:4041C0005AF1FF0F0220000078002E405DF1FF0F5CF1FF0F0F0F000005050000050F000080002E40EC0F00F0E00F00F06DF2FF0F6CF2FF0F84002E406FF2FF0F6EF2FF0F0B
:4042000094002E4080B582B000AF0200BB1D1A80BB1D1B881800FFF7E9FAC046BD4602B080BDC04680B582B000AF78607B681800FFF7B6FAC046BD4602B080BD80B500AF1D
:4042400000F0ECF8C046BD4680BDC04680B500AF00F0F0F8C046BD4680BDC04680B500AF00F0E8F8044B180000F0A2F8032000F0ADF8C046BD4680BD7146000080B500AFD8
:40428000034B180000F080F8C046BD4680BDC0467146000080B500AF014B1800BD4680BD0202000080B582B000AF78602B231800BD4602B080BDC04680B582B000AF786067
:4042C0002B231800BD4602B080BDC04680B582B000AF78602B231800BD4602B080BDC04680B582B000AF78602B231800BD4602B080BDC04680B582B000AF78602B23180074
:40430000BD4602B080BDC04680B582B000AF78602B231800BD4602B080BDC04680B582B000AF78602B231800BD4602B080BDC04680B582B000AF78602B231800BD4602B0E4
:4043400080BDC04680B500AF2B231800BD4680BD80B582B000AF0200FB1D1A702B231800BD4602B080BDC04680B582B000AF786039602B231800BD4602B080BD80B500AF95
:40438000C046BD4680BDC04680B582B000AF786000F050F87B68180000F00AF8032000F015F800F03BF8C046BD4602B080BDC04680B582B000AF7860034B7A681A67C046B8
:4043C000BD4602B080BDC0460000002090B585B000AF0200FB1D1A700623FB600B23FC18FFF70BFD030023700B4B0B4A1268C0218A431100FA1D1078FA68904002000A437A
:404400001A600B23FB181B781800FFF7FAFCC046BD4605B090BDC0460CE400E080B500AF034B802252011A60C046BD4680BDC04600E100E080B500AF034B802252011A60FA
:40444000C046BD4680BDC04680E100E090B5C9B000AF7860396000238C225200BA18136000238A225200BA1813607B686C4A934200D9C7E03B68002B00D1C3E080235A00D6
:4044800039680C23FB180833180000F0AAFA7B68644A934201D9644A00E0644A644B902149008C46BC4463441A60614B902252009446BC446344FF225A605E4B0C22BA1865
:4044C0001A605D4B5D4A1A60C0465A4B1B681B0F1A07F0231B069A4204D1564B1B68FF2213400DE0534B1B681B0F1A07A0231B069A4204D04F4B1B68FF22134000E0002302
:404500008C225200BA1813608C235B00FB181B68002B00D07BE02023FF33FC18FFF76DFC0300237000F090F803008A225200BA1813608C235B00FB181B68002B3FD13C4BA2
:40454000902252009446BC4463443D4A1A60384B902252009446BC4463441A687B681B041A43334B902149008C46BC4463441A60304B0C22BA181A602F4B324A1A60C046F6
:404580002C4B1B681B0F1A07F0231B069A4204D1284B1B68FF2213400DE0264B1B681B0F1A07A0231B069A4204D0224B1B68FF22134000E000238C225200BA1813608A234E
:4045C0005B00FB181B68002B14D100F047F803008A225200BA1813608A235B00FB181B68002B07D08A235B00FB181B688C225200BA1813602023FF33FB181B781800FFF799
:4046000000FC04E004238C225200BA1813608C235B00FB181B681800BD4649B090BDC046FF030000FF010000B6D70001B6D70000ECFEFFFF080010400400104004000080F2
:40464000B6D800000500008080B582B000AF00237B607B681800BD4602B080BD80B582B000AF00237B607B681800BD4602B080BD80B500AF12F0DCFEC046BD4680BDC04619
:40468000002243088B4274D303098B425FD3030A8B4244D3030B8B4228D3030C8B420DD3FF22090212BA030C8B4202D31212090265D0030B8B4219D300E0090AC30B8B4289
:4046C00001D3CB03C01A5241830B8B4201D38B03C01A5241430B8B4201D34B03C01A5241030B8B4201D30B03C01A5241C30A8B4201D3CB02C01A5241830A8B4201D38B024A
:40470000C01A5241430A8B4201D34B02C01A5241030A8B4201D30B02C01A5241CDD2C3098B4201D3CB01C01A524183098B4201D38B01C01A524143098B4201D34B01C01ABE
:40474000524103098B4201D30B01C01A5241C3088B4201D3CB00C01A524183088B4201D38B00C01A524143088B4201D34B00C01A5241411A00D20146524110467047FFE71A
:4047800001B5002000F0F0F802BDC0460029F7D076E7704703460B437FD4002243088B4274D303098B425FD3030A8B4244D3030B8B4228D3030C8B420DD3FF22090212BA91
:4047C000030C8B4202D31212090265D0030B8B4219D300E0090AC30B8B4201D3CB03C01A5241830B8B4201D38B03C01A5241430B8B4201D34B03C01A5241030B8B4201D3BD
:404800000B03C01A5241C30A8B4201D3CB02C01A5241830A8B4201D38B02C01A5241430A8B4201D34B02C01A5241030A8B4201D30B02C01A5241CDD2C3098B4201D3CB0185
:40484000C01A524183098B4201D38B01C01A524143098B4201D34B01C01A524103098B4201D30B01C01A5241C3088B4201D3CB00C01A524183088B4201D38B00C01A524111
:4048800043088B4201D34B00C01A5241411A00D201465241104670475DE0CA0F00D04942031000D34042534000229C4603098B422DD3030A8B4212D3FC22890112BA030AB7
:4048C0008B420CD3890192118B4208D3890192118B4204D389013AD0921100E08909C3098B4201D3CB01C01A524183098B4201D38B01C01A524143098B4201D34B01C01ADE
:40490000524103098B4201D30B01C01A5241C3088B4201D3CB00C01A524183088B4201D38B00C01A5241D9D243088B4201D34B00C01A5241411A00D20146634652415B108C
:40494000104601D34042002B00D54942704763465B1000D3404201B5002000F005F802BD0029F8D016E770477047C046014B18687047C046AC1100200E4B70B500251E00D5
:404980000D4CE41AA410A54204D0AB00F35898470135F8E713F0D8FB084B00251E00084CE41AA410A54204D0AB00F35898470135F8E770BD54810100548101005481010081
:4049C0005C81010030B50024A24208D0035D651C0C5DA34201D0181B02E02C00F4E7002030BD002310B59A4203D0CC5CC4540133F9E710BD03008218934202D01970013332
:404A0000FAE770470FB40B4B13B51C68002C05D0A369002B02D1200000F03CFA05AB049AA1682000019300F001FC16BC08BC04B01847C046AC11002070B505000E00002844
:404A400004D08369002B01D100F024FAAB69AC68002B02D1280000F01DFA254B9C4201D16C6808E0234B9C4201D1AC6803E0224B9C4200D1EC68A3891B0702D52369002BD9
:404A800011D12100280000F09BF800280BD0012040422BE0013B0136A360002B08DB23685A1C226019703178A3680029F2D10BE0A269934201DB0A29F1D12200280000F091
:404AC00027F8431CEFD1E2E7013BA360002B08DA22000A31280000F01BF8431CD7D00A2004E00A2023685A1C2260187070BDC046B4800100D4800100F480010010B5034B4D
:404B000001001868FFF798FF10BDC046AC110020F8B505000F001400002804D08369002B01D100F0B7F9234B9C4201D16C6808E0214B9C4201D1AC6803E0204B9C4200D156
:404B4000EC68A369A360A3891B070AD52369002B07D023682269FEB2981A636998420FDB08E02100280000F02BF80028F1D0012040421DE02100280000F01EF90028F6D103
:404B8000A3680130013BA36023685A1C22601F706369984205D0A3893000DB0708D50A2E06D12100280000F007F90028DFD13000F8BDC046B4800100D4800100F4800100C8
:404BC000364B70B51D6806000C00002D05D0AB69002B02D1280000F05DF9314B9C4201D16C6808E02F4B9C4201D1AC6803E02E4B9C4200D1EC680C22A35E9AB2110723D4E7
:404C0000D10607D409220120326037321343A381404242E0530713D5616B002908D023004433994202D0300000F02CFA002363632422A3899343A381002363602369236077
:404C40000822A3891343A3812369002B0BD1A0238022A1899B0092000B40934203D02100300000F0D1F90123A289134005D00023A36063695B42A36103E0920700D46369F1
:404C8000A36000202369834207D10C22A35E1A0603D540221343A381013870BDAC110020B4800100D4800100F4800100F7B58A8905000C0013075AD44B68002B02DC0B6C18
:404CC000002B19DDE76A002F16D000232E682B6080235B011A4001D0606D14E00123216A2800B847431C0ED12B68002B0BD01D2B01D0162B02D12E6000205AE04022A389AE
:404D00001343A38155E0A3895B0706D56368C01A636B002B01D0236CC01A00230200216A2800E76AB847A389421C06D129681D293AD8204ACA40D20736D50022626022694A
:404D40002260DB0405D5431C02D12B68002B00D16065616B2E600029CED023004433994202D0280000F08EF90020606321E00F69002FC1D00B680F60DB1B01930023920727
:404D800000D14B69A36003E0019B3F181B1A0193019B002BB0DD019B3A00216A2800A66AB0470028F0DCA389402201201343A3814042FEBD010040200B6970B505000C0083
:404DC000002B01D100201CE0002804D08369002B01D100F05FF80B4B9C4201D16C6808E0094B9C4201D1AC6803E0084B9C4200D1EC680C22A35E002BE4D021002800FFF70E
:404E000055FF70BDB4800100D4800100F480010010B5024900F0B0F810BDC046B94D0000002310B5040003604360836081814366C281036143618361190008225C30FFF7FD
:404E4000D9FD054B24626362044BA362044BE362044B236310BDC046A9570000D1570000095800003558000070B568254B1E5D430E002900743100F051F9041E08D000212F
:404E80002A00016046600C30A0606832FFF7B2FD200070BD836913B50400002B28D18364C3640365134B144A1B6882620193984201D101238361200000F020F86060200034
:404EC00000F01CF8A060200000F018F80022E06004216068FFF7A4FF01220921A068FFF79FFF02221221E068FFF79AFF0123A36113BDC046B0800100114E0000F8B51D4BEC
:404F000006001D68AB69002B02D12800FFF7C2FF4835AC686B68013B05D40C22A75E002F10D06834F7E72B68002B01D02D68F0E704213000FFF798FF28600028F6D10C233D
:404F4000336016E0012320005B42E3810233A38167662760A760676027616761A7615C3008223900FFF746FD20006763A763A764E764F8BDB0800100F7B50400070000265B
:404F800001914834002C16D06368A5680093009B013B00930DD4AB89012B08D90E22AB5E013304D029003800019B984706436835EDE72468E6E73000FEBD000070B50E008C
:404FC0001D000E23C95E90B01400002906DA00232B60B3891B060FD540230FE001AA00F055FC0028F3DBF023029A1B021340054A9B185A4253412B608023DB0000202360BF
:4050000010B070BD00E0FFFFF7B502268B8905000C00334210D101AB6A46FFF7CFFF00990700280000F07AF800280CD10C22A35E9A0523D43343A381230047332360236104
:40504000012363611AE080220D4BAB62A38920601343A381009B20616361019B002B0AD00E23E15E280000F023FC002803D00122A3891343A381A3891F43A781F7BDC046C5
:40508000114E000070B50500002944D00C1F2368002B00DAE418280000F03BFC1E4A13681100002B02D16360146031E0A3420DD92268A018834203D118685B6882182260E5
:4050C00063600C6024E0A24203D813005A68002AF9D11E689819A0420BD12168711858181960824214D110685268411819605A600EE0A04202D90C232B6009E0216860184F
:40510000824203D1106852684118216062605C60280000F0FFFB70BD10230020032370B5CD1C9D43083506000C2D01D20C2501E0002D01DBA94202D90C23336048E030005D
:4051400000F0E7FB234B1C681A002100002913D00B685B1B0DD40B2B02D90B60CC181EE08C4202D1636813601AE04B6863600C0016E00C004968E9E7174C2368002B03D131
:40518000300000F0FFFA20602900300000F0FAFA431C18D00323C41C9C43A0420DD12560300000F0B7FB200007220B30231D9043C31A0ED05A42E2500BE0211A300000F070
:4051C000E1FA431CEBD10C233000336000F0A2FB002070BD102300200C230020936810B5013B9360002B05DA9469A34208DBCBB20A2B05D01368581C10601970C8B201E0C3
:40520000FFF786FC10BDF8B506000F001400D518AC4208D021783A003000FFF7DFFF0134431CF5D100E00020F8BD0000F0B59FB006000F0002920593002804D08369002B72
:4052400001D1FFF727FE7F4B9F4201D1776808E07D4B9F4201D1B76803E07C4B9F4200D1F768BB891B070AD53B69002B07D0002306AD6B6120336B761033AB763DE039002D
:405280003000FFF79DFC0028F1D001204042D6E0059A111D12680591002A00DA7FE00992013423782E2B00D18DE021780322684800F024FB002807D0654B2A68C01A4023B0
:4052C000834013432B6001342178631C062261480293297600F012FB002800D19DE05E4B002B00D090E00722059B07339343083305936B69039A9B186B61029C2378002B31
:4053000004D1029BE31A049312D003E0252BF8D00134F3E7049B029A39003000FFF773FF431C00D186E06A69049B944663446B612378002B7ED00122002352426A6002A9B7
:405340005432521801342B60EB60AB601370AB6521780522414800F0D1FA002808D03F4B2A68C01A0123834013432B600134EFE72B68DA0604D55322202102A81218117070
:405380001A0704D553222B2102A81218117022782A2A00D17CE7099B00200A2105E05242EA60022213432B607AE72278303A092A04D84B4301349B180120F6E7002800D123
:4053C0006FE709936DE763782A2B0AD1059B02341A1D1B680592002B01DA01235B42079363E700230A201A0001346B6021783039092904D84243013452180123F6E7002BC3
:4054000000D152E7079250E705AB00933A00144B2900300000E000BF07E005AB00933A000F4B2900300000F08BF80390039B013300D05EE7BB895B0600D526E70B981FB0C1
:40544000F0BDC046B4800100D4800100F48001001A8101001E810100000000001481010007520000F7B5170001938A680B6900900C00934200DA130022003B604332127878
:40548000002A01D001333B6023689B0602D53B6802333B60062523681D401ED0230043331B785A1E9341226892061CD53020E1184331087021005A1C45310978A21843322E
:4054C000023311700FE022000123193201990098089EB047431C0ED00135E3683A689B1A9D42F0DBDAE72200019943320098089DA847431C02D10120404220E00623206844
:40550000E1683A6803400025042B03D18D1AEB43DB171D40A3682269934201DD9B1AED180027BD420AD0220001231A3201990098089EB047431CDED00137F2E70020FEBD94
:40554000F0B58BB006920A0043320793059004920A7E0C00109B6E2A00D1ABE011D8632A22D009D8002A00D1B5E0582A00D0C5E045310A70814A4FE0642A1DD0692A1BD089
:40558000BCE0732A00D1AAE009D86F2A29D0702A00D0B3E0202209680A43226037E0752A1FD0782A33D0A9E00E001A684236111D196013683370A4E021681A68080606D44E
:4055C000490604D5111D19600023D55E02E0111D19601568002D3BDA2D23049A6D42137036E021681A68080606D4490604D51568111D1960ADB202E0111D196015685F4BBA
:40560000227E039308276F2A1DD00A271BE022007821453211705A4A19680392081D226818600D68100602D4500600D5ADB2D30702D520231A4322601027002D03D1202386
:4056400022689A4322602300002243331A7002E00A274A4B03936368A360002B09DB0422216891432160002D05D1049E002B11D07BE0002D79D0049E28003900FFF786F8E4
:40568000039B013E5B5C280033703900FEF7F8FF051EF1D1082F09D12368DB0706D563682269934202DC3023013E3370049B9B1B23612BE009681A68080607D4490605D501
:4056C000111D19601368A28A1A8004E0111D1960136862691A600023049E236116E01A68111D1960166800216268300000F006F9002801D0801B6060636803E026004236E7
:405700003270012323610023049A1370079B09AA00932100069B0598FFF7A4FE431C02D10120404227E02369320006990598079DA847431CF4D0236800259B070FD4099B97
:40574000E068984217DA180015E022000123193206990598079EB047431CE1D00135E368099A9B1A9D42F0DBE9E72600039B42361B7833708EE70BB0F0BDC0462581010041
:4057800036810100002370B5064C050008002360FBF7D8FC431C03D12368002B00D02B6070BDC0463823002070B50C000E25495F00F0B2F8002803DB636D1B18636503E0F5
:4057C000A289024B1340A38170BDC046FFEFFFFFF8B51F008B8905000C001600DB0505D50E23C95E0022022300F074F8A289054B28001340A38132000E23E15E3B0000F0F8
:405800001FF8F8BDFFEFFFFF70B50C000E25495F00F060F8A389421C03D1054A1340A38104E0802252011343A381606570BDC046FFEFFFFF10B50E23C95E00F015F810BD1A
:4058400070B50500080011000022064C22601A00FBF72EF9431C03D12368002B00D02B6070BDC04638230020002370B5064C05000800236000F064F8431C03D12368002B6B
:4058800000D02B6070BDC04638230020002370B5064C050008001100236000F059F8431C03D12368002B00D02B6070BD38230020002370B5064C05000800236000F050F815
:4058C000431C03D12368002B00D02B6070BDC0463823002070B50500080011000022064C22601A0000F044F8431C03D12368002B00D02B6070BDC04638230020C9B2821830
:40590000904204D003788B4202D00130F8E70020704770477047000070B50500080011000022064C22601A0000F02AF8431C03D12368002B00D02B6070BDC04638230020FB
:4059400058220120014B40421A6070473823002058220120014B40421A607047382300205822024B00201A607047C0463823002058220120014B40421A607047382300204F
:4059800058220120014B40421A60704738230020134A1088810703D08107890F401A001D11791030484381B25088820703D08207920F801A001D800040180A494030098921
:4059C00080B2CA0701D0503080B2890706D504495422091F09785143081880B2704700002E0E00203412002010B501F0B1FF10BD10B501F0B3FF10BD10B501F0C5FF10BD3C
:405A000010B501F0C9FF10BD10B500F055FA10BD10B50749044609780220002907D1204602F00AF8002802D120460AF047FD10BDCC0F002070B504460120002C12D023685D
:405A4000002B0FD0616800290CD0074D06222889208118462968FEF7C4FF6968606809780170002070BD000034120020FFB585B0002768460E9D07734F481C46007800281F
:405A800002D0082009B0F0BD10990F9801900095029105A807C800F001F90028F2D16946264603AB84460873002C19D0002115E08A00B75A082F09D990198078002805D0A1
:405AC000083FB7521878401C187005E0002914D00027B75290198770491CC9B2A942E7D360460028CED10F98002809D0109901F0DFFA002804D00120C4E701208446EFE78A
:405B000001F042FF2D480021416081600599016021888180022D07D3A1798171A17AC171A1890181218A418100211EE0481C19E082008B00A75AE65ABE46BE4211D26F4691
:405B40003E80B4461E190296B678BE7001967646E6521719029EBB78B3706646A652019EBE70401CA842E3D3491CA942DED3134822460C3000906846037B0799069800F03A
:405B800015F90028B8D168460B4C007B60700B480C3001F029FF0028AED1084907480C3107F00EFD0028A7D107F028FD0028A3D10121217066E70000280E002028120020A0
:405BC000F8B5054633480E460078002802D002242046F8BD002E5BD000242F49002D16D02A89D0070DD02868002808D003881B3BE12B04D24088FB2801D81B2801D201246A
:405C000009E0900707D56868002804D1F7E70020088108604860002CDAD11F482F8907811C481B21801D018041800421017119490020891C0870F80705D016480622801D7A
:405C40002968FEF7CEFE1449B80703D56A681148127882700F480D46801D0860001F486001F010FF0B48801D01F0FEFE28890DF0ABFD28890DF012FF03461033FFF788FEC7
:405C80001F21C018890140180249308088809FE701249DE7280E002034120020FFB58446384F1C460020BB883F78054602460646002F11D100290ED0029999420BD3614689
:405CC000002908D0002C06D00A99002906D02E4B0B99994202D2012004B0F0BD002144E0AB001F19BF78002F3BD0E35A002B38D07B43591889B22B0000F04AF805041016B2
:405D00001C253100A7782388BC46FF27233BEB37BB4222D26346032B1FD322E0A388002B1FD0302B19D31CE02389002B19D0282B13D316E0A289002A13D01346134F233BFB
:405D4000BB420AD20DE0268A002A0AD033460F4F233BBB4201D2964203D901200EE0002001E000280AD16D1CEDB2099B9D42B7D31C2463435B1802998B42ACD89642AAD809
:405D8000AAE70000280E002079020000BAFF000030B47446641E2578641CAB4200D21D46635D5B00E31830BC18470000FFB583B0002469460C801F4606468C80002806D007
:405DC0000598002803D004983043800701D0012466E0002FFBD03449049809888842F6D3FEF74CFAFEF732FA00F012FC002855D100F07AFD002851D12C49084601F08CF970
:405E000005042D0C4AD12A480499066081800021C18007810C98007AC00704D0684601F0CCFD040007D10C98007A800703D501A801F0CCFD0446BF1DFEB2002C20D131465E
:405E4000059800F05DF804001AD10DF035FE040016D16A461088928808368518144AF1B29088D288AEB29319984207D3401B801A80B201F041FC050007D000E0FF2501246C
:405E800000F05EFA002D04D008E0F8B200F01CF9F6E700F081FA07490120087000F0CAFB204607B0F0BD00002C0E0020ED5F000040120020340E002010B503480078012827
:405EC00001D101F0BBFA10BD340E002070B5084B0446DA889E8800205518B54206D81D68AA182260DA885118D98070BD032070BD4012002001480089704700004012002078
:405F0000F0B587B007460D4600208900009006916846FFF7DBFF844600285DD1304800990160002117E02E4B88001A680629115406D22C4C0419667882185670628805E05C
:405F4000C419203CA67A8218567022891B68C018491C4280C9B2A942E5D300242DE0601CC2B2059025E01E4FA30039689600581840887118039604904E88B04217D93846F7
:405F80006F46FE80B6464F786E4677710297049F4F800168039F5E18767879184E700168764659184E800068029F18184770521CD2B2AA42D7D30598C4B2AC42CFD3604661
:405FC000002809D168460699FFF780FF8446002802D1054900980860604607B0F0BD0000380E0020808101003C0E00207047000010B5002809D005494A68002A05D0011F52
:4060000008788000105801F025FB10BD380E002010B50446FFF76EFFC0B2801DA0420CD307484068002808D0A100405801F084FA002801D00470001D10BD002010BD00008F
:40604000380E0020F8B516460D460446FFF752FFC0B2801DA04203D20020C0430090F8BDB2B2E9B2684601F08DFA0099481C03D0024AA000526811500098F8BD380E0020F0
:40608000F8B50746FFF736FF801DC6B20A49002005460C680DE06178002907D06188B94202D32078FFF7B4FF002804D1241D6D1CEDB2B542EFD3F8BD380E002010B500288D
:4060C00001D0FFF795FF10BD70B506460948002504680BE06178002905D062882078121D0023FFF7AFFF241D6D1CEDB2B542F1D370BD0000380E0020FFB581B00A9F160090
:406100000C4620D000F0F2F8054604281BD0002F0CD03846FFF7B4FF20492A0151184860002810D03A460499FEF75BFC1B4928010E504618778101980570200406D47D20AF
:40614000C000444304E0FF2005B0F0BD6404640C00F0BAF80746042807D000F04FFAA0420BD800F04BFA201A03E0204600F0AAFA0020F06035720020E6E700F03FFA0090A2
:4061800000F0B6FA00980121001B009000F0ECF802493A0151180098C860E6E74C120020F8B5060116483418217A042903D0E068002802D017E00020F8BD00F01FFA0546B1
:4061C00000F096FA00F0A0F804280CD001010C480F18F8680021451900F0C6F80020F860284600F06FFA6068054D002801D0FFF765FF042020720020A8516081E060DAE728
:406200004C120020FEB500266A46304601232549050169180D7A042D02D0C96800291BD000211154401CC0B20428F0D300246846005D002830D01B48210108184189476841
:4062400005680291002101604160042241810272C160002E02D015E01354E3E700F054F804280ED001010F4808180190C6680021304600F079F801980021C160304600F0A1
:4062800021FA0126002D07D038460299A847002F02D03846FFF712FF641CE4B2042CC6D3FEBD00004C1200200EB5002005216A460090118150810348694600680EF061FA8B
:4062C0000EBD0000400E0020074A0020010189180B7A042B02D0C968002903D0401CC0B20428F3D3704700004C1200200549002002015218127A042A03D0401CC0B2042847
:40630000F6D370474C12002030B50A4B04200A4C00210A011219157A042D06D0D268002A03D09A4201D808461346491CC9B20429EFD330BDFFFF00004C120020704700003C
:4063400030B50020074C05460423020111190B72A5504D60401C4D81C0B2CD600428F4D330BD00004C12002030B5094C00231A011219157A042D04D0D568002906D02D1828
:40638000D5605B1CDBB2042BF1D330BD2D1AF7E74C120020002070471CB5002469460C70142001902346054A05480EF0EFF904480068401C00D1FF2420461CBD15640000BE
:4063C000400E00203EB5124A0146FF2000230124126800290DD0012914D0042908D104206946009308814B8110460EF0CAF980B23EBD6846009304814381694610460EF012
:40640000BBF9F4E768460093048143816946EBE7400E002070B545890468416800890300FFF7B6FC08280509091E22282628002005F088FF1EE0022908D0C8B22A4621462D
:406440000CF02EFB2046FFF739FE13E002202A4621460CF025FB2946204600F00DF809E000200DF08DFE05E02046FFF7CBFE01E0FDF784FF002070BD014B0022DB68184742
:40648000440E002070B5448905680089022803D0032809D0FF2070BD2246094C0023A46829460120A04708E0FFF7A6FA241DA2B200232946022006F036FF002070BD000093
:4064C000440E002070470000024800214160018041807047440E002070B50C46002186B016460391012802D0022859D116E003A9012006F06DFF01281BD1039D3246214636
:406500002846FEF76EFA0095287801900220694608814E816846FFF7B5FF41E0214D002B686809D0049004A9022006F051FF01281DD0022006B070BD002812D0298840180F
:406540002146FEF74EFA28880024801980B228806988091D884206D12C801348FFF792FF03E00320E6E788421AD96C6018E004986860E278A378110219430B4A69800023ED
:406580001060E3565360032313815181A1788170E178C1706178417021780170042028800020C7E7440E00208C1200203EB515460C46022803D004280CD000203EBD0091B0
:4065C000019002206946088107484A8100680EF0D8F807E00CF064FA044B0022DB6829462046984701203EBD400E0020440E0020014AD16090607047440E00200348016872
:406600008068081A0A214843000970479812002010B5FDF723FE482204490548FEF7E1F903490120C870002010BD00009C8101009C16002010B5FDF701FE10BD70B5134CD8
:406640002368002B08D0207B1149C20705D04008400020738868A08070BD88680B4AA18880B29268814203D90A4D691A091802E0814202D2411A5118A160A080A06898422D
:40668000EAD30EF09BF800F013F870BD98120020C0102E40FFFF000010B508461946FFF7A7FF10BD704710B5FFF780FF10BD000003480021016041608160C160704700009E
:4066C00098120020024610B5FF20002A0CD0FFF7EFFF064C0321207B0843207310010A21FEF754F82060002010BD00009812002000B504480A21806848430209FFF7D8FFA0
:40670000104600BD981200200248007B8007C00F704700009812002010B54B490868002802DA4A4B01221A70022290430860484800694549C00B4031096A0246C907C90F4C
:406740000A4259D0012000F0EDFA3F480E216C30FDF77EFC3E4820218430FDF779FC3C4814219C30FDF774FC3948FF21C131A430FDF76EFC3648FF212F31B030FDF768FC24
:4067800033483449BC30FDF763FC31483249AC30FDF75EFC30492E48491CB430FDF758FC2B482E49B830FDF753FC29482C49CC30FDF74EFC26482B490830FDF749FC244810
:4067C0002949A830FDF744FC214828498830FDF73FFC1F4826498C30FDF73AFC1C481921C9029030FDF734FCFDF742FCFDF752FDC0B2022812D01FE000290BD000210142F7
:406800000AD0114801216030FDF722FC0120FDF709FD97E70121F2E7FF2010BD15491648FDF716FC14481549001DFDF711FC124800210830FDF70CFC54200449C043891C2F
:406840000870002010BD000000F02E40540E002000002E40320300002F3F00003102000010520000EC160000FA12000031D000003AE300009956000080012E40F80F00001C
:4068800070B50646581C80B245086D00002408E0304600F0C1F81055000A1119A41C4870A4B2AC42F4D3D80705D0D0182038D15CC47FD454C17770BD30B50A4C002100195A
:4068C0005B1E07E0541864782502545C2C430480891C89B29942F5DB994201D1515C018030BD000000102E4010B5FF2000F01AFA0F49FF2048700E481021801D4180012137
:40690000417001700A490020C91C4870FFF704FF04000AD100F02EF907210648FDF788FB044807211830FDF783FB204610BD0000540E0020CC112E4070B5002405465B1E0E
:406940000AE0284600F068F8010A161971702D1D1055A41CADB2A4B29C42F2DB9C4203D1284600F059F8105570BD000070B500210A4D5B1E0AE0541864782602545C3443FB
:4069800046193480001D891C80B289B29942F2DB994202D1515C4019018070BD00102E40F0B50599091FCFB200217E1E0BE0541864782502545C2C43164D45192C80001D61
:4069C000891C80B289B2B142F1DBFC0712D01C78515C24020F4A0C4381180C809C785D78001D210280B2294384182180001D80B2D9780CE059781A7809021143054A841870
:406A00002180001DD9789B78090280B2194380180180F0BD00102E40014940180088704700102E4010B50B490020487000F0A2F8002000F09DF9002000F08AF907210648CE
:406A4000FDF7F6FA044807211830FDF7F1FA002010BD0000570E0020CC112E4010B50C48007801280FD100F0DFFF00F0DDF8002804D10848016A4908490001620548022188
:406A80003030FDF7E5FA02490020C91E087010BD570E002040F02E4010B50B46062812D006DC01280CD0032801D1FFF7BBFF10BD0A28FCD00B28FAD105480078107010BD54
:406AC000FFF712FF10BD1146184600F06DF910BD5A0E0020F8B5244DAC6A0127A007234E002816DA307806280ED1286A384328621F480069F903084381B21D481030FDF7A7
:406B0000A7FA042000F00EF9174802212830FDF78FFAE00718D000F0C9FF01280FD1002001F028F8062000F0FDF81049FF20C91E48707078002802D1686B384368630A4811
:406B400001212830FDF774FAE0050BD53078042802D1052000F0E6F80348FF2101312830FDF766FAF8BD000040F02E40570E002000002E4010B503212348FDF769FA01207F
:406B8000FDF740FB20483038406A204C80076178800F890001431C480C38FDF759FA6078002808D0401E022181401820FDF7D8FEC000083800E0B82081B21548FDF748FA7B
:406BC0001348032109021438FDF742FA10481149B830FDF73DFA612189010F48FDF738FA0D480321001FFDF733FA0C490C48FDF72FFA0B480B496038FDF72AFA08480121F9
:406C00008838FDF725FA10BD70F02E405A0E0020D8102E4090890000041E2E40FF0F000058122E4020900000044800684007400F022801D0002070470120704700010B4089
:406C400000B5FFF7F1FF002805D009480168C908C900016000BD0748016A490849000162054801690122D2039143016100BD000000010B4040F02E4000002E400849087888
:406C800006280BD148780749002803D1486B400840004863C86A01221043C86270470000570E002040F02E400148007870470000570E002002484078022800D0012070475B
:406CC000540E002000B50300FFF762F8080D050D0B070507090D012000BD032000BD042000BD022000BDFF2000BD0000074A9168D26889B2064B92B2994204D105498A4237
:406D000001D1012100E000210170704780002E4033D000003FE300000149487070470000570E002010B50446FDF790FA072C01D9FF2C01D102480470FDF780FA10BD000055
:406D4000570E00200149487070470000540E002010B5064A012805D01921C9021046FDF777F910BD1D21C902F8E7000090002E4010B50A4A141D012808D009491046FDF7E7
:406D800067F908492046FDF763F910BD04491046891CFDF75DF90349491DF3E788002E4031D000003AE3000070B50C460546FDF771FAC0B202280E49287804D0FF2810D0DE
:406DC0004C280CD810E0FF2809D10A4AD0680004800F032801D0087807E09069000A553803E00878207070BD4F382070087070BD560E002000002E40F0B50122002834D076
:406E0000002932D00424420600D00524792342065B06D21800D0641C034600221EE00C2516466E43124D00277519AF72104F002ABB51696007D0661EB24209D10D4E8619E2
:406E40007606760E05E05E06760E8027BE1B00E080269B198919521C2E81D2B2A242DED303480549006B002288611046F0BD00002415002079020000600E002018B5002052
:406E8000694608700A48006900280ED0132149014018047E684604704F21C900054800F0A7F8A04201D0012018BD002018BD0000600E0020A8120020F1B582B000206A46AD
:406EC00010700299002903D100F09EFE00283AD11E4F00240C2126464E43F519A97A01291DD11B49B859896988420BD14F21C900786800F07DF8694608701322796852019C
:406F0000891808762A89B9596868FCF77DFF00280CD028200299002905D0282803D0641CE4B2062CD6D3641CE1B20AE00021A972F0E70C224A43D219927A012A04D0491C0F
:406F4000C9B20629F5D3FEBD2820FEBD24150020600E0020074900200C2242435218927A012A05D0401CC0B20628F5D3002070470120704724150020F8B50E000446154635
:406F800009D0194F19497868A04202D94018A04201D38D4201D90120F8BD31462046FDF711FD00281ED02A4631462046FDF719FDE8B200210C224A43D21913895568EE18F8
:406FC000A6420BD90126641B1B1B9672834209DA1469C01A044AC0B220329676491CC9B20629E7D30020F8BD2415002079020000034610B50020024604E09C5C2018521C5A
:40700000C0B292B28A42F8D310BD000070B500F05FF8084C064A216907480D46FDF7E1FC05492846FFF7E8FEFFF728FF207070BD79020000600E0020A812002000207047FD
:407040000020054A002902D0012902D002E0906000E0D06000207047600E002070B5084C154608460549E26889182A46FDF7B9FCE0684019E06028B270BD0000A81200202D
:40708000600E00203EB50A226946FFF7E7FF044606480A2200686946FDF794FC002802D00020C0433EBD20463EBD0000640E0020002802D0044A914201D2FF20704703491E
:4070C0004A6108610020704779020000600E0020024800218160C16070470000600E002070B5074C15460548A26880182A46FFF743FFA0684019A06028B270BDA81200203E
:40710000600E002010B503490A220968FFF7E8FF10BD0000640E002010B50F4A002313600E4A13600E4B18600E4801600E49012008600E490860000290600E490C4808602C
:407140000D4914300860FF381538506000F0BCF800F0CAF9002010BD940E00207C0E0020A80E0020AC0E0020980E0020880E00206C1600208C0E0020A00E0020014610B5C7
:407180000020002910D0094B1A689C685118A14209D25868196080188A0704D08A07920F891A091D196010BD002010BD7C0E0020F8B50024164E671E321F3D4631681368F5
:4071C00006E01422624310328A58521C1BD0641C9C42F6D36A1C14D02C461422544322460C3288500C214843FFF7C8FF3168002808510AD031680020103408517068401C10
:4072000070602846F8BD2546E4E73846F8BD00008C0E0020F3B50026F64381B000281BDB1E490968884217D80299002914D01B4F142204463F1D54432546396810354859DA
